:020000040800F2
:10000000B004002001010008A71500083B110008FA
:10001000A51500080F0200082D17000800000000B9
:10002000000000000000000000000000AB15000808
:100030001102000800000000A9150008AD15000815
:100040001B0100081B0100081B0100081B01000820
:100050001B0100081B0100081B0100081B01000810
:100060001B0100081B0100081B0100081B01000800
:100070001B0100081B0100081B0100081B010008F0
:100080001B0100081B0100081B0100081B010008E0
:100090001B0100081B0100081B0100081B010008D0
:1000A0001B0100081B0100081B0100081B010008C0
:1000B0001B0100081B0100081B0100081B010008B0
:1000C0001B0100081B0100081B0100081B010008A0
:1000D0001B0100081B0100081B0100081B01000890
:1000E0001B0100081B0100081B010008DFF80CD0F1
:1000F00000F06CF8004800470D1C0008B004002018
:100100000648804706480047FEE7FEE7FEE7FEE7B1
:10011000FEE7FEE7FEE7FEE7FEE7FEE70F16000854
:10012000ED000008202A04DB203A21FA02F0002129
:10013000704721FA02F3D040C2F1200291400843F7
:1001400019467047D2B201E000F8012B491EFBD2DC
:1001500070470022F6E710B513460A4604461946D2
:10016000FFF7F0FF204610BD2DE9F05F05460020A7
:1001700092469B4688460646814640241BE0284618
:10018000414647462246FFF7CDFF53465A46C01A1E
:10019000914110D311461846224600F029F82D1A35
:1001A00067EB01084F4622460120002100F020F8AD
:1001B00017EB00094E41201EA4F10104DFDC484684
:1001C00031462A464346BDE8F09F0000064C074DE5
:1001D00006E0E06840F0010394E807009847103417
:1001E000AC42F6D3FFF786FF142000083420000845
:1001F000202A04DB203A00FA02F1002070479140E7
:10020000C2F1200320FA03F3194390407047FEE740
:10021000704772B6FEE7000070B5044600F0FEF8C5
:100220000546601C02D004480078044400F0F6F84B
:10023000401BA042FAD370BD000000202DE9F84F0A
:10024000DFF8B891002409F1040A0AF1040B2346EF
:100250000F270BF1040EC9E00125A5402A40AA4250
:100260007DD1674ED1F804C0ACEB0608B44532D05E
:1002700014DCBCF1030F3AD009DCBCF1000F2AD02A
:10028000BCF1010F1CD0BCF1020F31D11DE0BCF15B
:10029000110F17D0BCF1120F2AD119E0B8F5881F41
:1002A00019D006DCB8F5803F15D0B8F5801F1FD1F6
:1002B00011E0B8F5001F0ED0B8F5041F18D10AE000
:1002C000CB6815E0CB681B1D12E0CB6808330FE04C
:1002D000CB680C330CE08B682BB1012B4FF008037B
:1002E00003D0456104E0042302E0056100E000233F
:1002F000FF2A01D8064601E000F104064FEA840512
:1003000001D9A5F12005D6F8008007FA05FC28EAF6
:100310000C0803FA05F548EA0508C6F800804D68A0
:10032000ED0062D5374DAE6946F00106AE61AD69AC
:1003300024F0030605F001050095334D06EB050C8E
:10034000DCF80850A607360F07FA06F825EA080574
:10035000DFF8B880404503D14FF0000817E044E0D3
:10036000DFF8AC80404502D14FF001080FE0DFF824
:10037000A480404502D14FF0020808E0DFF89880E1
:10038000404502D14FF0030801E04FF0040808FA9D
:1003900006F848EA0508CCF808804D68D9F80060EE
:1003A000ED034D4601D5164300E096432E604D689F
:1003B000DAF80060AD03554601D5164300E09643D8
:1003C0002E604D68DBF80060ED025D4601D51643F6
:1003D00000E096432E604D68DEF80060AD02754681
:1003E00001D5164300E096432E60641C0D682A4632
:1003F000E5407FF431AFBDE8F88F00000004014014
:1004000000001110001002400000014000080140EF
:10041000000C0140001001400014014001488068B8
:10042000704700000000002070B5040025D094F84B
:100430003D00002520B984F83C50204600F070FAB9
:10044000242084F83D002068016821F0010101604A
:100450002068016841F4004101602068016821F4CE
:100460000041016000F0ACFB4D4A6168914201D847
:100470004C4900E04C49884201D2012070BD4B49F3
:100480002368B0FBF1F15E6826F03F060E435E6024
:100490006368934206D94FF4967359434FF47A73C5
:1004A000B1FBF3F12368491C1E6A26F03F06314375
:1004B00019626168914210D84900401EB0FBF1F208
:1004C000521CC2F30B02042A01D2042022E0B0FB2A
:1004D000F1F0401CC0F30B001CE0A268F2B301EB8A
:1004E000C10303EB0116431EB3FBF6F35B1C43F49D
:1004F00080431B0549D092B301EBC10202EB01110D
:10050000401EB0FBF1F0401CC0F30B0040F48040F3
:1005100040F400402168CA694CF6FF739A431043C7
:10052000C861D4E9071001432068026822F0C002C4
:1005300011430160D4E9030101432068826848F255
:10054000FF339A4311438160D4E9050108432168D0
:10055000CA6822F0FF021043C86001E00EE016E016
:100560002068016841F0010101602564202084F8C1
:100570003D00256384F83E50002070BD01EB41062C
:10058000431EB3FBF6F35B1CB3E70120C2E701EBAC
:100590004101401EB0FBF1F0401CC0F30B00B7E777
:1005A000A086010080841E0000093D0040420F002B
:1005B0002DE9F84F0025DDF82890984617468A4621
:1005C00004460095FFF72AFF064694F83D002028D0
:1005D0007AD11923012283492046009600F0B0FE0B
:1005E0000028F5D194F83C0001286DD0012084F852
:1005F0003C0020680168C90703D1016841F001018E
:1006000001602068016821F400610160222084F803
:100610003D00102084F83E0025646762A4F82A801B
:10062000608D20857048E06233464A465146204638
:1006300000F09CFD00287DD1208DDFF8B0812027BF
:1006400068B1012814D00228206801681ED041F446
:10065000806101602068416980690090B5E0206890
:10066000416981690091016841F400710160ACE069
:100670002068016821F48061016072B620684169D8
:1006800081690091016841F400710AE041F4006160
:10069000016072B62068416981690091016821F4A6
:1006A0008061016062B690E0032868D801280CD010
:1006B00002284B464FF000024146204600960FD0DC
:1006C00000F03EFEB0BB10E08AE0324649462046CC
:1006D00000F0B5FE70BB20680069616A08706BE0CD
:1006E00000F02EFE30BB72B634E02068016821F4C1
:1006F0008061016072B620680069616A0870606A92
:10070000401C6062208D401E2085608D401E6085EB
:10071000374846F2A8110068B0FBF1F0C0EBC0000A
:1007200000EB80000090401E009008D020684069D7
:10073000C04300E029E040070CD50098F3E744F8F7
:10074000305F6773A573206940F02000206162B6B6
:1007500025731AE02068016841F400710160206887
:100760000069616A0870606A401C6062218D491EE0
:100770002185618D491E618562B621681AE0324685
:100780004946204600F05BFE10B10120BDE8F88F1D
:1007900020680069616A0870606A401C6062218D8F
:1007A000491E2185618D491E618521684A69D243B0
:1007B00052070AD409690170606A401C6062208D8A
:1007C000401E2085608D401E6085208D00287FF4AE
:1007D0006BAF84F83D7084F83E5084F83C50D5E708
:1007E0000220D3E7020010000000FFFF0400010018
:1007F0000C0000202DE9F84F1F4690468A4604461B
:10080000DDF82890FFF70AFE054694F83D00202801
:100810007FD11923012240492046009500F090FD28
:10082000002876D194F83C00012872D0012084F889
:100830003C0020680168C90703D1016841F001014B
:1008400001602068016821F400610160212084F8C2
:100850003D00102084F83E0000262664C4F8248061
:100860006785608D20852D48E0622B464A465146BB
:10087000204600F0F1FC90B9206841698069009041
:1008800036E02A464946204600F00CFE50B1206C66
:10089000042804D12068016841F40071016001203E
:1008A000BDE8F88F606A216800780861606A401CC2
:1008B0006062618D491E6185218D491E89B2218545
:1008C00022685369DB435B070BD451B10078106198
:1008D000606A401C6062608D401E6085208D401EF5
:1008E00020852A464946204600F004FD0028CED146
:1008F000208D0028C5D154F83D0B016841F40071EA
:100900000160202004F81E09E67766770020C7E71B
:10091000FFE70220C4E70000020010000000FFFF14
:1009200010B586B0002100910191029103910068F9
:10093000104988421BD1104CA06940F00800A0610A
:10094000A069694600F0080004904FF440600090F0
:1009500012200190032003900848FFF76FFCE06924
:1009600040F48000E061E06900F48000049006B08B
:1009700010BD00000058004000100240000C014073
:1009800002488168027811448160704700000020AD
:10099000074810B5016841F010010160032000F024
:1009A00067F8002000F006F800F024F8002010BDE1
:1009B0000020024070B50D4D04464FF47A7128783E
:1009C000B1FBF0F00A490968B1FBF0F000F0DEFA83
:1009D00048B9102C07D200222146501E00F028F8FA
:1009E00000206C6070BD012070BD00000000002080
:1009F0000C0000200C4808B5816941F001018161BB
:100A0000816901F001010091C16941F08051C1612A
:100A1000C06900F0805000900448416821F0E06116
:100A200041F00071416008BD00100240000001402B
:100A3000F0B40E4B1B680C46C3F30223C3F1070549
:100A4000042D00D90425191D072901D2002300E037
:100A5000DB1E012606FA05F1491E214099409E4001
:100A6000761E16403143F0BC00F072BE0CED00E083
:100A7000064900F0070208684FF6FF03184040EAF5
:100A80000220034A10430860704700000CED00E0AC
:100A90000000FA052DE9F0470F46050061D0434EEE
:100AA000306800F00700B84209D2306820F0070033
:100AB00038433060306800F00700B84251D12868F0
:100AC0003B4C810712D5400703D5606840F4E060D5
:100AD00060602878000703D5606840F4605060606B
:100AE0006068A96820F0F000084360602878C007BB
:100AF00028D06868012810D02168022810D0890702
:100B000000292EDA616821F0030101436160FFF7DB
:100B100085FC804641F288390DE021688903EFE7C2
:100B20008901EDE7FFF77AFCA0EB0801494502D9FE
:100B30000320BDE8F0876068696800F00C00B0EB46
:100B4000810FEFD1306800F00700B8420BD9306850
:100B500020F0070038433060306800F00700B842EA
:100B600001D00120E5E72878400705D56068E968ED
:100B700020F4E060084360602878000706D56068CC
:100B8000296920F4605040EAC100606000F038F844
:100B90006168084AC1F30311515CC8400649086006
:100BA00006480068FFF706FF0020C2E70020024069
:100BB00000100240B01F00080C00002004000020BC
:100BC0000448054900684968044AC1F30221515CA0
:100BD000C84070470C00002000100240C01F0008F1
:100BE0000448054900684968044AC1F3C221515CC0
:100BF000C84070470C00002000100240C01F0008D1
:100C000012A185B00FC98DE80F0014A0144A006826
:100C100004905168134801F00C03042B10D0082BEA
:100C20000ED1C1F38343C9031DF803000AD55168EF
:100C300004AAC1F34041515C0A4A5043B0FBF1F0B1
:100C400005B0704708494843FAE70000020304056D
:100C5000060708090A0B0C0D0E0F10100102000008
:100C60000010024000127A0000093D002DE9F84F03
:100C7000040070D02078C04DC00749D06868C0F328
:100C80008100012807D06868C0F38100022809D1DB
:100C90006868C00306D52868800339D560680028D5
:100CA000E7D035E06068B0F5803F0BD010B1B0F50B
:100CB000A02F11D0286820F480302860286820F404
:100CC000802002E0286840F480302860606890B19D
:100CD000FFF7A4FB06460AE0286840F4802028605D
:100CE000F0E700BFFFF79AFB801B642873D82868E1
:100CF0008003F7D50CE0FFF791FB064605E000BF47
:100D0000FFF78CFB801B6428F0D828688003F7D499
:100D100020789A4E80074FF001094FF0000839D52E
:100D2000686810F00C0F07D06868C0F381000228D3
:100D300009D16868C00306D42868800714D52069E3
:100D4000012808D110E02069B0B1C6F80090FFF783
:100D500065FB074605E00AE1FFF760FBC01B0228C0
:100D6000C4D828688007F7D52868616920F0F800A2
:100D700040EAC10028600DE0C6F80080FFF74EFB96
:100D8000074604E0FFF74AFBC01B022823D8286867
:100D90008007F7D4207800072CD57948A169D9B10C
:100DA000C0F80090FFF73AFB074604E0FFF736FB78
:100DB000C01B02280FD8686A8007F7D571484FF426
:100DC000FA510068B0FBF1F0009000BF0098411E9E
:100DD0000091FAD20EE080E0C0F80080FFF71EFB21
:100DE000074604E0FFF71AFBC01B022875D8686AA3
:100DF0008007F7D42078400760D5E8690027C00055
:100E000008D4E86940F08050E861E869012700F003
:100E1000805000905C480168C90513D4016883467E
:100E200041F480710160FFF7F9FA824606E000BFE5
:100E3000FFF7F4FAA0EB0A0064284ED8DBF80000B4
:100E4000C005F5D5E06801280AD008B1052813D0FF
:100E5000286A20F001002862286A20F0040002E0DD
:100E6000286A40F001002862E06841F2883B98B1AE
:100E7000FFF7D4FA82460BE0286A40F004002862AB
:100E8000EEE700BFFFF7CAFAA0EB0A0159455AD8AE
:100E9000286A8007F6D50CE0FFF7C0FA824605E025
:100EA000FFF7BCFAA0EB0A0159454CD8286A800725
:100EB000F6D41FB1E86920F08050E861E06988B39A
:100EC0006968C1F38101022944D00228C6F8608014
:100ED00004D0FFF7A3FA044638E034E0FFF79EFAA7
:100EE000074604E0FFF79AFAC01B02282BD82868AF
:100EF0008001F7D4206AB0F5803F05D16868A16809
:100F000020F4003008436860D4E9080108436968A8
:100F100021F4741108436860C6F86090FFF77EFA08
:100F2000044606E025E000BFFFF778FA001B022820
:100F300009D828688001F7D51BE000BFFFF76EFADB
:100F4000001B022802D90320BDE8F88F2868800121
:100F5000F4D40EE00128F7D06868226A00F48031EA
:100F6000914204D1616A00F47010884201D00120DE
:100F7000EAE70020E8E700000010024000004242DB
:100F8000800442420C0000200070004010B5401E5A
:100F9000B0F1807F01D3012010BD4FF0E0246061EB
:100FA0000F21601700F0D4FB0020A0610720206112
:100FB000002010BD70B5040004D094F83D00002559
:100FC00010B106E0012070BD84F83C50204600F0CE
:100FD00023F8242084F83D002068C16821F40051E2
:100FE000C160204600F014FB2068016921F49041A3
:100FF00001612068416921F02A0141612068C168CE
:1010000041F40051C1602564202084F83D0084F83B
:101010003E00002070BD000030B585B00024009473
:1010200001940294039400681449884224D114481E
:10103000816941F480418161816901F480410491B9
:10104000816941F00401816180690E4D00F0040066
:1010500004904FF400700090022001900320039050
:1010600069462846FFF7EAF82815CDE900046946E5
:1010700028460294FFF7E2F805B030BD0038014081
:1010800000100240000801402DE9F843044690F8A2
:101090003D001F4616460D4620284CD1C5B1BEB1B5
:1010A00094F83C00012846D0012084F83C004FF021
:1010B0000008C4F84080212084F83D00FFF7AEF915
:1010C000A6848146E684A068B0F5805F03D004E082
:1010D0000120BDE8F883206928B12E465FF00005A5
:1010E00084F83C800EE00026FAE78021204600F0DC
:1010F000EBFAA0B9AEB116F8010B21684860E08C9C
:10110000401EE084E08C4B464FF000020097002820
:10111000EBD14FF04001204600F0D6FA30B1032069
:10112000D7E735F8020BC0F30800E6E7202084F883
:101130003D000020CDE70220CBE7FEE701684A69C9
:10114000D24352050FD46FF480624A61002140F807
:10115000301F202242738173026942F0040202614F
:101160000173012070470020704700002DE9F84FFF
:101170000446C06A1E4693460D4621680A6842F43A
:1011800080620A60082807D0012805D010F5803F4A
:1011900002D0206B112804D12068016841F48071CD
:1011A00001604FF001195B46002249462046009637
:1011B00000F0C6F84FF4007840B120680068C00520
:1011C00001D5C4F840800320BDE8F88F2069DFF81E
:1011D00084A0B0F5804F0FD00620216800EAD51713
:1011E00047F0F000086133465A460AF106012046EE
:1011F00000F0DAF858BB03E0E8B240F001001CE070
:101200002168E8B2086133465A465146204600F04C
:10121000CBF8E0B92068416981690091016841F427
:10122000807101605B46002249462046009600F02E
:1012300087F80028C1D147F0F100216808613346E2
:101240005A465146204600F0AFF80028BCD0012095
:10125000BAE7000002000100F8B50446C06A1E4665
:101260000D461746082807D0012805D010F5803F05
:1012700002D0206B122804D12068016841F48071EB
:101280000160134600224FF001112046009600F045
:1012900057F840B120680068C00502D54FF40070CF
:1012A00020640320F8BD2069B0F5804F0ED00620E1
:1012B000216800EAD51040F0F000086133463A4654
:1012C0000B49204600F070F878B902E005F0FE0006
:1012D00000E0E8B221680861054933463A46891FB3
:1012E000204600F061F80028DCD00120F8BD0000A5
:1012F0000800010070B516460D4604460DE0204674
:10130000FFF71CFF08B1012070BD681C05D0FFF776
:1013100085F8801BA84207D835B120684069C043D2
:101320004007ECD4002070BD002044F8300F20218D
:101330006173A073216941F0200121612073E2E70C
:101340002DE9F0471E4690460D460446C1F3074777
:10135000DDF8209008E0701C06D0FFF75FF8A0EBE6
:101360000900B0420FD876B12068012F18D08069EB
:1013700025EA00000004000C14D000214145EAD009
:101380000020BDE8F087002044F8300F2021617371
:10139000A073216941F02001216120730120F0E751
:1013A0004069E5E70121E9E72DE9F0479A469146D2
:1013B0000E46044600254FF02008C1F3074725E0FC
:1013C00020684069C043400514D42068016841F496
:1013D0000071016021686FF480604861256384F8C2
:1013E0003D8084F83E50206C40F00400206484F876
:1013F0003C501FE0B9F1FF3F08D0FFF70FF8A0EB1A
:101400000A0149450CD8B9F1000F09D02068012F15
:1014100013D0806926EA00000004000C0BD0CFE74F
:1014200044F8305F84F80D80A573206940F02000F7
:10143000206125730120BDE8F0874069EAE72DE9C6
:10144000F041002590460E460446202717E04069EB
:10145000C043C0060CD454F8301B6FF01000486134
:1014600044F810596777A577206A2062257717E03E
:10147000FEF7D4FFA0EB0800B04208D83EB12068C8
:101480004169C9434906E2D40020BDE8F08144F82F
:10149000305F6773A573206940F0200020612573D9
:1014A0000120F2E770B516460D4604460DE02046D1
:1014B000FFF744FE08B1012070BD681C05D0FEF79F
:1014C000ADFF801BA84207D835B120684069C043F2
:1014D0000006ECD4002070BD002044F8300F20211D
:1014E0006173A073216941F0200121612073E2E75B
:1014F0000D4808B5816941F020018161816901F0E1
:1015000020010091816941F008018161816901F048
:1015100008010091816941F004018161806900F056
:101520000400009008BD0000001002400D4810B5F6
:101530000B4901600C49416000214FF480428160F9
:10154000C0E9031241618161C1610162FEF76CFF74
:10155000002803D0BDE81040FEF75BBE10BD0000C0
:101560000058004014000020A08601000C4810B56F
:101570000A4901604FF4E1314160002181600C2291
:10158000C160C0E904128161C161FFF713FD002849
:1015900003D0BDE81040FEF73CBE10BD003801404E
:1015A00068000020FEE7FEE770477047FFF7E8B9E4
:1015B00030B58FB028216846FEF7CBFD14210AA86C
:1015C000FEF7C7FD01210804CDE9001000240294B4
:1015D00002250491CDE907504FF4E01009906846C8
:1015E000FFF744FB08B172B6FEE70F20CDE90A050C
:1015F0004FF48060CDE90C4002210AA80E94FFF759
:1016000049FA002801D072B6FEE70FB030BD70472E
:1016100070B5044600680169E26821F44051114345
:1016200001612169A0680843616908432168CA68AB
:1016300041F20C639A430243CA6020684169A2697F
:1016400021F44071114341611E492068884202D152
:10165000FFF7C6FA01E0FFF7B3FA00EBC00101EBB8
:101660000012606864218000B2FBF0F3B3FBF1F379
:101670006FF018067343B2FBF0F5B2FBF0F605EB22
:101680008305322303EB0515B5FBF1F5B6FBF1F647
:1016900005F0F00505EB0615B2FBF0F6B2FBF0F035
:1016A000B0FBF1F06FF01802504306EB800003EB43
:1016B0000010B0FBF1F0216800F00F0028448860B2
:1016C00070BD0000003801402DE9F04198461746F2
:1016D0000E460446069D1DE0681C1BD02DB1FEF78A
:1016E0009DFEA0EB0800A84214D92068C16821F42F
:1016F000D071C1602068416921F001014161202061
:1017000084F83D0084F83E00002084F83C0003206B
:10171000BDE8F0812068006836EA000004D00020AF
:10172000B842D9D00020F3E70120F9E7FEE7000036
:101730000FB4054B10B503A9044A029800F028F82D
:1017400010BC5DF814FB0000F51B00081000002021
:101750000907090E002804DB00F1E02080F80014DE
:10176000704700F00F0000F1E02080F8141D704772
:1017700002E008C8121F08C1002AFAD1704770475A
:10178000002001E001C1121F002AFBD170470000B8
:101790002DE9FF4F8DB00F460546002606E02528AF
:1017A0000BD0DDE90F1290476D1C761C28780028BD
:1017B000F5D111B03046BDE8F08F0024A246A14615
:1017C0000122EC4900E0044315F8013F203B02FAF6
:1017D00003F00842F7D128782A2810D06FF02F02A2
:1017E0002878A0F13001092914D80AEB8A0102EB0C
:1017F000410144F0020400EB010A6D1CF0E701CF47
:101800005FEA000A03D544F40054CAF1000A44F028
:1018100002046D1C28782E2817D115F8010F44F00A
:1018200004042A280ED06FF02F022878A0F130018E
:1018300009290AD809EB890102EB410100EB0109F2
:101840006D1CF2E757F8049B6D1C28786C280FD0AC
:1018500006DC4C2817D068280DD06A2814D104E083
:10186000742810D07A280FD10DE044F400140AE057
:1018700044F4801401E044F440146978814202D1B8
:1018800004F580146D1C6D1C2A786E2A1FD00CDCA8
:10189000632A31D004DC002A8BD0582A11D1A3E06E
:1018A000642A68D0692A0CD165E0732A2ED004DC42
:1018B0006F2A73D0702A04D19BE0752A6FD0782AE2
:1018C0006ED01046DDE90F129047761C50E1C4F34C
:1018D0000250022806D0032809D0042801CF09D0DD
:1018E000066045E101CFF117C0E9006140E101CF99
:1018F00006803DE106703BE117F8040B8DF800000F
:1019000000208DF80100EB46012003E057F804BBEE
:101910004FF0FF3061074FF0000102D40DE008F1F5
:101920000101884649450FDA8045F8DB1BF80810AD
:101930000029F4D108E008F1010188468142FADB70
:101940001BF808100029F6D1DDE90F23AAEB0800E7
:101950008146214600F036F9304400EB080604E0E9
:10196000DDE90F121BF8010B9047B8F10108F7D21F
:1019700021464846F7E00A21C4F302534FF0000B1A
:101980000891022B04D001CFC117032B09D00AE024
:10199000FF1D27F00707F7E8020108E032E01FE02B
:1019A00020E000B2C117042B01D140B2C117031EC1
:1019B00071F1000307DA4FF0000CD0EB0C006CEB78
:1019C00001012D2302E0230504D52B238DF82430BB
:1019D000012303E0E30701D02023F7E7984658E00E
:1019E0000A2110E010210EE010204FF0000B0890AB
:1019F0000CE010214FF0000B44F004044FF00809F4
:101A0000089103E008214FF0000B0891C4F3025342
:101A1000022B04D001CF0021032B06D006E0FF1DCE
:101A200027F00707F7E8020103E080B2042B00D19A
:101A3000C0B24FF0000823072BD5702A07D0DDF87D
:101A400020C08CF0100C5CEA0B0C05D00EE040239B
:101A50008DF82430012308E050EA010306D030233A
:101A60008DF824308DF8252002239846DDF820C01B
:101A70008CF0080C5CEA0B0C0BD150EA010301D18D
:101A8000630706D530238DF824304FF00108A9F103
:101A90000109582A04D038A20B9208AA0A920BE036
:101AA0003AA2F9E75B46089AFEF75EFB0B9B9B5C4C
:101AB0000A9A521E0A92137050EA0102F2D10A9851
:101AC000ADEB000000F1200B600702D524F4803458
:101AD00001E04FF00109D94502DDA9EB0B0000E060
:101AE000002000EB0B0141440890AAEB010AE0033F
:101AF00006D4DDE90F232146504600F063F8064482
:101B00004FF0000908E009A911F80900DDE90F12FA
:101B1000904709F10109761CC145F4DBE0030CD5BF
:101B2000DDE90F232146504600F04CF8064404E05E
:101B3000DDE90F1230209047761C0899481E089066
:101B40000029F5DC08E00A980A990078491C0A91F6
:101B5000DDE90F129047761CBBF10001ABF1010BE0
:101B6000F1DC21465046DDE90F2300F019F8064468
:101B70006D1C1BE60928010030313233343536370D
:101B800038396162636465660000000030313233C9
:101B90003435363738394142434445460000000069
:101BA0002DE9F041044600251E461746880404D45A
:101BB00005E039462020B0476D1C641EF9D5284643
:101BC000BDE8F0812DE9F041044600251E4690460F
:101BD000C80301D5302700E02027880404D505E09C
:101BE00041463846B0476D1C641EF9D52846BDE80D
:101BF000F081000013B54FF0FF330122694602481F
:101C0000FFF742FA00981CBD680000201FB50020B5
:101C1000ADF80000ADF8040002900390FEF7B8FEA6
:101C2000FFF7C6FCFFF764FCFFF7A0FC2E48FFF7A8
:101C30007FFD4FF47A7505E02CA0FFF779FD28466B
:101C4000FEF7EAFA00F050F90028F5DB2CA0FFF7C8
:101C50006FFD02A800F0D1F8002801DA2DA00CE0F9
:101C600034A0FFF765FD002402AE39A0315DFFF717
:101C70005FFD641C062CF8DB20A0FFF759FD36A0A1
:101C8000FFF756FD4FF4FA744FF4C876694601A881
:101C900000F049F9002801DA36A000E03BA0FFF788
:101CA00047FD2046FEF7B8FABDF8000018B9BDF8A8
:101CB0000400B042EAD011A0FFF73AFD694601A83E
:101CC00000F031F9002803DA31A0FFF731FD06E01A
:101CD000BDF80020BDF8041032A0FFF729FD28460A
:101CE000FEF79AFAEAE70000C81F00082073677041
:101CF000333020696E6974206661696C0D0A0000DA
:101D000020736770333020696E6974206F6B0D0A21
:101D1000000000002073677033302072656164201A
:101D200073657269616C206964206661696C6564C1
:101D30000D0A0000207367703330207265616420E3
:101D400073657269616C2069642069733A000000F0
:101D50002530325800000000207367703330207740
:101D60006169742061697220666F7220696E69749E
:101D7000000000000D0A2073706733302072656127
:101D800064206661696C6564000000002E0000003C
:101D90002073677033302072656164206661696CFE
:101DA0000D0A000020434F323A25356470706D20D3
:101DB0002020202020202054564F433A253564709F
:101DC00070620D0A0000000070B50446FF2000227A
:101DD00031250FE0A35C521C5840D2B20023060606
:101DE00002D585EA400000E040005B1CDBB2C0B2D7
:101DF000082BF4D38A42EDD370BD70B588B0044689
:101E000036208DF8000082208DF8010002226946FC
:101E1000B02000F059F8002803DA4FF0FF3008B086
:101E200070BD09226946B12000F03EF8002802DAB0
:101E30006FF00100F3E79DF802609DF8050066F37E
:101E4000070560F30F259DF80800022160F3174590
:101E50009DF8000020709DF8010060709DF803005F
:101E6000A0709DF80400E0709DF8060020719DF8B8
:101E7000070060712046FFF7A7FFB0420FD1022193
:101E8000A01CFFF7A1FFC5F30721884207D102215B
:101E9000201DFFF799FFC5F30741884202D06FF07C
:101EA0000200BCE70020BAE708B56423009393B2B0
:101EB0000A4601460348FEF77BFB002801D04FF09D
:101EC000FF3008BD1400002008B56423009393B2CE
:101ED0000A4601460348FEF78DFC002801D04FF06A
:101EE000FF3008BD1400002008B5FFF71FFB00F00D
:101EF00055F8002802DA6FF0010008BD3220FEF725
:101F00008BF920208DF8000003208DF801000222BB
:101F10006946B020FFF7D8FF002802DA6FF0020010
:101F200008BD002008BD7CB505460020009001904A
:101F300020208DF8000008200C468DF801000222B8
:101F40006946B020FFF7C0FF002802DA4FF0FF30EB
:101F50007CBD0A20FEF760F906226946B120FFF732
:101F6000A3FF002802DA6FF001007CBD02210DF111
:101F70000300FFF729FF9DF80510884202D06FF09B
:101F800002007CBD1DB1BDF8000040BA28801CB124
:101F9000BDF8030040BA208000207CBD08B50620B3
:101FA0008DF80000012269460020FFF78DFF08BD73
:101FB00000000000000000000102030406070809F9
:101FC00000000000010203040D0A0D0A232323234D
:101FD00023232323232323232323232323232323D1
:101FE00023232323202053475033302053544D3391
:101FF000322044656D6F20232323232323232323AF
:102000002323232323232323232323232323230DB6
:102010000A0D0A003420000800000020140000000F
:102020007017000848200008140000209C040000DD
:1020300080170008010000001000000000000000F0
:082040000024F4000000000080
:04000005080000ED02
:00000001FF
